:020000020000FC
:100000000C94A91018951895189518951895189589
:100010001895189518951895189518951895189578
:100020001895189518951895189518951895189568
:100030001895189518951895189518951895189558
:10004000189518950C9406AD18951895189518954F
:100050001895189518951895189518951895189538
:10006000189518950C94F9AD189518950C9478B1CD
:100070001895189518951895189518951895189518
:100080001895189518951895189518951895189508
:1000900018951895189518951895189518951895F8
:1000A00018951895189518951895189518951895E8
:1000B00018951895189518951895189518951895D8
:1000C00018951895189518951895189518951895C8
:1000D00018951895189518951895189518951895B8
:1000E000189518952020204D61696E20204D656E71
:1000F00075202020004D30204F7065726174696F4B
:100100006E20202020004D31204472697665204DFC
:100110006F6E69746F72004D3220506172616D654F
:1001200074657245646974004D33204175746F20A5
:1001300054756E696E672020004D34204661756CE1
:1001400074205265636F726420004D3520496E69DA
:100150007469616C697A65202020004D36205061F9
:100160007373776F72642020202020005B305D2045
:100170004C6F63616C2F52656D6F7465005B315D10
:10018000204469725F4368616E67652020005B32BE
:100190005D205370656564205365745F5074005B27
:1001A000335D2046726571205365745F5074200082
:1001B0005B345D20546F727175655F5365742020E8
:1001C000005B355D20504944205365745F507420B6
:1001D00020202030204F7065726174696F6E20207E
:1001E0002020002031205465726D696E616C2049B9
:1001F0004F202000203220447269766520496E66C7
:100200006F726D20002030204D6F746F722053701C
:100210006565642020002031204F7574707574204E
:100220004672657120200020322044435F4C696E85
:100230006B20566F6C7420002033204D6F746F72EA
:100240002043757272656E74002034204F7574708F
:10025000757420566F6C7420200020352041637423
:1002600075616C20546F7271202000203620546F0D
:1002700072712043757272656E74200020372046BB
:100280006C75782043757272656E7420002038207A
:10029000496E70757420506F776572202000203988
:1002A000204F757470757420506F7765722000311F
:1002B0003020504944205265666572656E63650062
:1002C00031312050494420466565644261636B20AA
:1002D0000020313220504944204572726F72202034
:1002E00020002031332054656D7065726174757221
:1002F00065200020302044495B382E2E2E2E2E2ED5
:10030000315D2000203120444F5B332E315D2020B1
:1003100020202020003220416E616C6F6720496EE2
:100320007075743120003320416E616C6F67204915
:100330006E7075743220003420416E616C6F6720DE
:100340004F757470757420002030204D6F746F727B
:100350002053656C20202020003120436F6E747282
:100360006F6C204D6574686F640020322052554ECA
:100370002F53544F50205372632000203320526576
:1003800066204D6574686F6420202000203420446E
:100390007269766520506F776572202000203520C5
:1003A000447269766520566F6C746167650020360B
:1003B000204F7074696F6E204361726420200020AA
:1003C0003720536F6674776172652056657220001E
:1003D000203820536F667477617265204F707420E7
:1003E0000020302050726F6772616D204374726C10
:1003F000200031204374726C2053657475705B4D1E
:10040000315D0032204374726C2053657475705BEB
:100410004D325D0033205265662053657475705B04
:100420004D315D200034205265662053657475702F
:100430005B4D325D200020352050726F746563740F
:10044000696F6E20202000203620416E616C6F673E
:1004500020496E7075742000203720504944204395
:100460006F6E74726F6C2020003820446967697465
:10047000616C20496E70757420003920204D756CB8
:100480007469537465705B4D315D003130204D757A
:100490006C7469537465705B4D325D00313120417D
:1004A0006E616C6F67204F75747075740031322007
:1004B0004469676974616C4F757470757400313389
:1004C000204D6F746F72204272616B652020003185
:1004D00034204175746F2054756E696E672020005A
:1004E000313520562F46204374726C5B4D315D20B0
:1004F00000313620562F46204374726C5B4D325DBE
:100500002000313720534C20566563746F725B4D69
:10051000315D00313820534C20566563746F725B37
:100520004D325D0020313920566563746F725B4D2A
:10053000315D20200020323020566563746F725B7D
:100540004D325D202000203231204D3120436F6E2E
:100550007374616E742000203232204D3220436F5C
:100560006E7374616E742000323320436F6D6D20A2
:10057000436F6E74726F6C20003234204D6F6E6961
:10058000746F722053657475700050302E3020499E
:100590006E692E20466C616720200050302E31207D
:1005A00050726F672E4B65792031200050302E320B
:1005B0002050726F672E4B65792032200050302E0C
:1005C000332050726F672E4B6579203320005030F6
:1005D0002E342050574420284C3129202020005010
:1005E000302E352050574420284C3229202020001E
:1005F00050302E362050574420284C3329202020BC
:100600000050302E372050574420284C34292020C9
:10061000200050302E382050574420284C352920B7
:1006200020200050302E392050726F675F4B657963
:100630002034200050302E31302050726F675F4BD5
:10064000657920350050302E31312050726F675F50
:100650004B657920360050302E3132205061726C5B
:100660006E695F4B65790050302E313320566F6CC8
:10067000745F436C6173200050302E313420467219
:1006800065715F436C6173730050302E31352054B7
:100690006865726D616C4D6F6E0050312E30204D6B
:1006A000315F5274645F507772200050312E3120D8
:1006B0004D315F5274645F566F6C740050312E324E
:1006C000204D315F5274645F437572720050312E59
:1006D00033204D315F5274645F4672657100503152
:1006E0002E34204D315F506F6C652020202000504B
:1006F000312E35204D315F5274645F537064200099
:1007000050312E36204D315F436F6E74726F6C2006
:100710000050312E37204D315F50574D5F46726586
:10072000710050312E38204D315F41545F46726563
:1007300071200050312E3920537570706C795F56DE
:100740006F6C740050332E302052554E2F53544F3F
:10075000502020200050332E312052616D705F49AF
:100760006E707574200050332E322053544F502039
:100770004465746563740050332E332053544F50D6
:10078000204D6F646520200050332E342053746F49
:1007900070486F6C645F546D0050332E35204F7578
:1007A000745F4F66665F546D200050332E36204FC5
:1007B00075745F4F66665F5265660050332E372052
:1007C0004163632F4465635F456E200050332E38CC
:1007D00020416363546D5F52616E67650050332E34
:1007E0003920416363537720312D3220200050336C
:1007F0002E313020416363537720322D3320005057
:10080000332E313120416363537720332D34200060
:1008100050332E313220416363537720342D3520FD
:100820000050332E313320416363537720352D360A
:10083000200050332E313420416363537720362D0E
:1008400037200050332E31352041636353772037F2
:100850002D38200050332E3136204163635F546DB4
:1008600020492E310050332E3137204163635F54CD
:100870006D20492E320050332E3138204163635FA2
:10088000546D20492E330050332E3139204163639B
:100890005F546D20492E340050332E323020416396
:1008A000635F546D20492E350050332E3231204184
:1008B00063635F546D20492E360050332E32322050
:1008C0004163635F546D20492E370050332E32331D
:1008D000204163635F546D20492E380050332E321F
:1008E00034204163635F546D204949200050332E0A
:1008F000323520446563546D5F526E67200050337B
:100900002E323620446563537720312D322000503B
:10091000332E323720446563537720322D33200045
:1009200050332E323820446563537720332D3420E2
:100930000050332E323920446563537720342D35EF
:10094000200050332E333020446563537720352DFB
:1009500036200050332E33312044656353772036E0
:100960002D37200050332E333220446563537720D7
:10097000372D38200050332E3333204465635F54C5
:100980006D20492E310050332E3334204465635F8F
:10099000546D20492E320050332E33352044656388
:1009A0005F546D20492E330050332E33362044657A
:1009B000635F546D20492E340050332E333720446A
:1009C00065635F546D20492E350050332E33382037
:1009D0004465635F546D20492E360050332E333901
:1009E000204465635F546D20492E370050332E3408
:1009F00030204465635F546D20492E380050332EFB
:100A00003431204465635F546D20494920005033E0
:100A10002E343220435F446563656C5F456E005041
:100A2000332E343320435F446563656C5F546D003F
:100A300050332E343420532D43757276655F456EE6
:100A40000050332E343520532D4372764163635F5B
:100A5000530050332E343620532D43727641636356
:100A60005F450050332E343720532D437276446552
:100A7000635F530050332E343820532D4372764435
:100A800065635F450050332E34392045535F4D6F09
:100A900064652020200050332E35302045535F44BC
:100AA000656354696D650050332E353120434F4ED8
:100AB00054494E555F4F500050332E353220526509
:100AC000765F4449525F456E0050352E3020495FB5
:100AD0004C696D69745B4D315D0050352E31204994
:100AE0005F4C696D69745B4D325D0050352E32206C
:100AF00052657365727665642020200050352E3370
:100B0000204F4C3320526566202020200050352E87
:100B100034204F4C332054696D652020200050351F
:100B20002E35204F4C322052656620202020005068
:100B3000352E36204F4C322054696D652020200020
:100B400050352E37204D6178436F6E5F437572725A
:100B50000050352E38204F7665725F4C6F616420EF
:100B6000200050352E39204F4C5F54696D654F760B
:100B700065720050352E3130204F4C5F41637469EF
:100B80006F6E200050352E3131204F435F54726913
:100B9000705F4D310050352E3132205A435F547210
:100BA00069702020200050352E3133204F565F4C85
:100BB00074645F466E200050352E3134204F56202D
:100BC0004C696D697420200050352E3135204F5608
:100BD00020547269702020200050352E3136205567
:100BE000565F436F6D705F466E0050352E31372073
:100BF00055565F436F6D705F56200050352E31386B
:100C00002055565F547269702020200050352E31D7
:100C100039204F505F50685F547269700050352E14
:100C2000323020496E7075745F46726571005035C0
:100C30002E323120426C742D696E5F444220005088
:100C4000352E32322044425F4672657120202000EA
:100C500050352E32332044425F53746172745F56B4
:100C60000050352E32342044425F46756C6C5F561E
:100C7000200050352E3235204F545F416374696F28
:100C80006E200050352E323620484F565F50726F1E
:100C90007465630050352E323720484F435F5072E1
:100CA0006F7465630050352E323820485A435F50C8
:100CB000726F7465630050352E3239204472765F4E
:100CC0004F4C5F466E200050352E333020526573F6
:100CD00074617274436E740050352E333120526546
:100CE0007472795F446C79200050352E3332204184
:100CF0002E5273745F4F4320200050352E33332023
:100D0000412E5273745F4F5620200050352E3334DD
:100D100020412E5273745F555620200050352E33DB
:100D20003520412E5273745F484F56200050352EA7
:100D3000333620412E5273745F484F4320005035A4
:100D40002E333720412E5273745F436E457200502C
:100D5000352E3338204374726C4572725F546D00C7
:100D600050352E3339204374726C5F4572725F497F
:100D70000050352E3430204F7665725F54656D70AB
:100D8000200050352E3431204F435F547269705F1C
:100D90004D320050352E3432204C6E5F5556202097
:100DA0002020200050352E3433205273745F4C6E57
:100DB0005F5556200050352E3434205273745F4CEA
:100DC0006E5F5542200050362E302041495F5265FB
:100DD000665F537263200050362E31204149312026
:100DE00046756E632E20200050362E322041493148
:100DF00020547970652020200050362E3320414940
:100E0000312046696C746572200050362E342041C2
:100E1000493120546D5F437420200050362E352018
:100E2000414931204F6666736574200050362E3676
:100E300020414931204D696E5F5620200050362EEA
:100E40003720414931204D696E5F6D412000503699
:100E50002E3820414931204D696E2E20202000502F
:100E6000362E3920414931204D61785F56202000CF
:100E700050362E313020414931204D785F6D412070
:100E80000050362E313120414931204D61782E20DD
:100E9000200050362E31322041493120496E762EC5
:100EA00020200050362E31332041493120445F53F9
:100EB0007465700050362E3134204149312044652C
:100EC00061642D5A0050362E31352041493220467A
:100ED000756E632E200050362E3136204149322067
:100EE0005479706520200050362E31372041493228
:100EF0002046696C7465720050362E3138204149A5
:100F00003220546D5F4374200050362E3139204119
:100F10004932204F66667365740050362E32302099
:100F2000414932204D696E5F56200050362E3231D5
:100F300020414932204D696E5F6D410050362E329E
:100F40003220414932204D696E2E20200050362E2D
:100F5000323320414932204D61785F5620005036AF
:100F60002E323420414932204D785F6D41200050AF
:100F7000362E323520414932204D61782E20200016
:100F800050362E32362041493220496E762E2020AE
:100F90000050362E32372041493220445F53746569
:100FA000700050362E323820414932204465616449
:100FB0002D5A0050362E3239204149332046756E65
:100FC000632E200050362E3330204149332054798F
:100FD000706520200050362E3331204149332046A1
:100FE000696C7465720050362E33322041493320CB
:100FF000546D5F4374200050362E33332041493303
:10100000204F66667365740050362E333420414994
:1010100033204D696E5F56200050362E3335204107
:101020004933204D696E5F6D410050362E333620B6
:10103000414933204D696E2E20200050362E333723
:1010400020414933204D61785F56200050362E33C1
:101050003820414933204D785F6D41200050362EB5
:10106000333920414933204D61782E2020005036FD
:101070002E34302041493320496E762E20200050F6
:10108000362E34312041493320445F53746570005B
:1010900050362E34322041493320446561642D5A44
:1010A0000050362E3433204149342046756E632E6D
:1010B000200050362E343420414934205479706554
:1010C00020200050362E3435204149342046696CAA
:1010D0007465720050362E34362041493420546DE8
:1010E0005F4374200050362E343720414934204F5E
:1010F00066667365740050362E34382041493420BA
:101100004D696E5F56200050362E343920414934E7
:10111000204D696E5F6D410050362E3530204149BB
:1011200034204D696E2E20200050362E353120415E
:101130004934204D61785F56200050362E353220DC
:10114000414934204D785F6D41200050362E3533B3
:1011500020414934204D61782E20200050362E3514
:10116000342041493420496E762E20200050362EFE
:1011700035352041493420445F5374657000503642
:101180002E35362041493420446561642D5A005083
:10119000362E3537204149352046756E632E2000A6
:1011A00050362E353820414935205479706520203D
:1011B0000050362E3539204149352046696C74651A
:1011C000720050362E36302041493520546D5F4331
:1011D00074200050362E363120414935204F666646
:1011E0007365740050362E363220414935204D69E2
:1011F0006E5F56200050362E363320414935204D43
:10120000696E5F6D410050362E36342041493520DD
:101210004D696E2E20200050362E3635204149353E
:10122000204D61785F56200050362E3636204149D9
:1012300035204D785F6D41200050362E36372041E5
:101240004935204D61782E20200050362E3638202A
:1012500041493520496E762E20200050362E3639F1
:101260002041493520445F537465700050362E3755
:10127000302041493520446561642D5A0050382E94
:10128000302052554E2F53544F50202020005038BC
:101290002E312044492E332046756E632E20005097
:1012A000382E322044492E342046756E632E20009D
:1012B00050382E332044492E352046756E632E203B
:1012C0000050382E342044492E362046756E632E49
:1012D000200050382E352044492E372046756E6345
:1012E0002E200050382E362044492E382046756E68
:1012F000632E200050382E372044492E3920467561
:101300006E632E200050382E382044492E31302074
:1013100046756E632E0050382E392044492E3131E7
:101320002046756E632E0050382E31302044492EF1
:1013300031322046756E630050382E3131204449D9
:101340002E31332046756E630050382E31322044E2
:10135000492E31342046756E630050382E313320CB
:1013600044492E31352046756E630050382E313495
:101370002044492E31362046756E630050382E3198
:1013800035204D2E432E20426C616E6B0050382E5E
:101390003136205265665F55502F444E200050383C
:1013A0002E313720466C795F5354415254200050FF
:1013B000382E31382052554E5F44656C61792000DB
:1013C00050382E313920496E6368696E675F546DFD
:1013D000005031312E3020414F31204F75747075DF
:1013E00074005031312E3120414F312054797065D5
:1013F0002020005031312E3220414F3120305F41CA
:10140000646A20005031312E3320414F3120345F47
:1014100041646A20005031312E3420414F31203256
:10142000305F41646A005031312E3520414F312008
:101430005363616C6520005031312E3620414F31AD
:1014400020496E762E2020005031322E3020444F1D
:101450002E312046756E6320005031322E312044EB
:101460004F2E322046756E6320005031322E3220CE
:10147000444F2E332046756E6320005031322E3398
:1014800020444F2E342046756E6320005031322E9A
:101490003420444F2E352046756E63200050313283
:1014A0002E3520444F2E362046756E632000503175
:1014B000322E3620444F2E372046756E6320005062
:1014C00031322E3720444F2E382046756E6320006F
:1014D0005031342E302054756E696E675F436F6EE5
:1014E000005031342E312045786369745F536C6944
:1014F00070005031342E322054756E655F53706425
:101500005F4C005031342E332054756E655F53703C
:10151000645F48005031342E34204846495F46729B
:1015200065712020005031342E35204846495F43F4
:101530007572722020005031342E36204578635F5A
:10154000537443757272005031342E3720457863DE
:1015500069745F466C7578005031342E38204578B8
:101560006369745F46726571005031352E302054C6
:1015700072715F436F6D702020005031352E312025
:101580004D696E5F467265712020005031352E32F4
:10159000204D61785F467265712020005031352EF4
:1015A0003320466C75785F4F75745F490050313554
:1015B0002E34205472715F4F75745F546D0050313A
:1015C000352E35205370645F4465745F546D005050
:1015D00031352E3620562F46204375727665200011
:1015E0005031352E37205A725F467265715F562032
:1015F000005031352E38204D69645F467265712088
:1016000020005031352E39204D69645F4672657176
:101610005F56005031352E3130204D61785F565F76
:10162000467271005031352E3131204D61785F5650
:101630006F6C7420005031352E3132204D61785F4F
:10164000565F4C7464005031352E31332066665F2E
:10165000565F436F6D70005031352E313420537119
:101660005F4372765F5620005031352E313520535E
:10167000745F42726B5F546D005031352E313620ED
:1016800053745F42726B5F4220005031352E313708
:101690002053745F42726B5F4920005031352E3108
:1016A000382053705F42726B5F546D005031352E9D
:1016B00031392053705F42726B5F422000503135E8
:1016C0002E32302053705F42726B5F496800503198
:1016D000352E32312053705F42726B5F4973005078
:1016E00031352E323220434320502D4761696E0040
:1016F0005031352E323320434320492D4761696EE6
:10170000005031352E323420537462545F436F6E73
:1017100073005031352E3235205374625F47616952
:101720006E20005031352E3236205374625F4C6982
:101730006D6974005031352E323720556E697479D9
:101740005F495F66005031352E3238204163635F58
:101750004F435F476E005031372E30205370645F27
:1017600044745F546D20005031372E31204D696E26
:101770002E205370656564005031372E32204D6144
:10178000782E205370656564005031372E33204F1A
:10179000535F4C696D69742020005031372E34201E
:1017A0005273765F303420202020005031372E35A0
:1017B0002053746172745F466C7578005031372E17
:1017C00036204261736520466C75782000503137B1
:1017D0002E372053465F456E645F5370640050316E
:1017E000372E382042465F53745F53706420005098
:1017F00031372E392046575F566F6C74616765002C
:101800005031372E31302046575F546D5F436F6E35
:10181000005031372E313120434320502D4761692C
:101820006E005031372E313220434320492D47611D
:10183000696E005031372E3133204343205A657290
:101840006F5F53005031372E3134205370645F473F
:1018500061696E20005031372E3135204C6F616444
:101860005F436F6D70005031372E3136204C435F2F
:10187000546D5F436F6E005031372E3137204C432B
:101880005F467265712020005031372E3138205369
:101890004320502D4761696E005031372E31392079
:1018A000534320492D4761696E005031372E323045
:1018B000205343205A65726F5F53005031372E32E8
:1018C000312047616D5F6C616D2020005031372EF3
:1018D00032322052735F4164615F456E0050313790
:1018E0002E32332052735F4164615F476E00503186
:1018F000372E32342047616D5F7468657461005023
:1019000031372E32352044656C5F6C616D202000CC
:101910005031372E32362044656C5F746865202064
:10192000005031372E3237204C6D5F4164615F4586
:101930006E005031372E32382053746172745F4616
:10194000476E005031372E3239205A725F486F6C23
:10195000645F47005031372E3330205A725F486F32
:101960006C645F46005031372E33312042726B5F1A
:10197000466C757820005031372E33322053435F48
:10198000475F41646A20005031372E333320547250
:10199000715F525F537263005031372E33342054DD
:1019A00072715F4F735F5363005031372E333520B0
:1019B0005472715F4C5F537263005031372E33366F
:1019C000205370645F4C696D6974005031372E3359
:1019D0003720535F4C74645F416374005031372E7D
:1019E000333820535F4C74645F4F66660050313764
:1019F0002E3339205370645F4C74645F470050315C
:101A0000372E3430205472715F436F6D7020005058
:101A100031372E3431205472715F465F5372630048
:101A20005031372E34322054435F505F4761696E26
:101A3000005031372E34332054435F495F54696D71
:101A400065005031372E34342054435F4F75744C49
:101A50006D74005031372E343520416374697665DA
:101A60005F4C64005031372E34362052735F41642E
:101A70007074456E005031372E343720556E6974BE
:101A8000795F495F66005031372E343820496E65E2
:101A9000725F54727120005031372E343920496EF4
:101AA00065724469665F54005031372E35302053DB
:101AB000706443746C5F4220005031372E35312002
:101AC00043757243746C5F4220005032312E3020D7
:101AD0005072695F526573203020005032312E31D0
:101AE000205072695F526573203120005032312ED0
:101AF00032205365635F52657320202000503231DD
:101B00002E3320537461746F725F496E64005032DB
:101B1000312E3420526F746F725F496E6420005012
:101B200032312E35204C6B675F496E6420202000D7
:101B30005032312E3620496E65727469615F546D82
:101B4000005032312E372049726F6E5F4C6F7373C5
:101B500020005032312E38204269735F44616D702D
:101B60002020005032312E3920537461746F72205E
:101B7000522020005032312E313020445F6178698C
:101B800073204C20005032312E313120515F61786A
:101B90006973204C20005032312E31322042616373
:101BA0006B20454D4620005032312E313320496E96
:101BB00074657269612020005032312E3134204624
:101BC00072696374696F6E20005032312E31352096
:101BD000426173655F53706420005032332E3020B1
:101BE000446561645F54696D6520005032332E3165
:101BF000204C696E5F526174696F20005032332E41
:101C00003220565F53656E735F53636C00503233FE
:101C10002E3320495F5363616C655F412000503271
:101C2000332E3420495F5363616C655F422000505E
:101C300032332E3520495F5363616C655F4320006A
:101C40005032332E3620495F4F6666735F41312034
:101C5000005032332E3720495F4F6666735F423142
:101C600020005032332E3820495F4F6666735F4341
:101C70003120005032332E3920495F4F6666735F42
:101C8000413220005032332E313020495F4F66669A
:101C9000735F4232005032332E313120495F4F663C
:101CA00066735F433200302044726976655F43613A
:101CB0006C69627261200031204D6F746F72205424
:101CC000756E696E67202000322053706565642050
:101CD00054756E696E672020002050726F636573C3
:101CE00073696E672E2E2E202000436F6D706C6519
:101CF0007465642E2E5B4553435D004661696C65D7
:101D0000642E2E2E20202020202020004631204F1F
:101D10007665725F4C6F616420202020004632207F
:101D20004F7665725F43757272656E74200046333C
:101D3000204F7665725F43757272205B485D004686
:101D400034205A65726F5F5365715F49202020000F
:101D50004635205A65726F5F5365715F495B485D18
:101D600000463620556E6465725F43757272656E0B
:101D700074004637204F7665725F4275735F566F09
:101D80006C74004638204F7665725F566F6C742015
:101D90005B485D004639204C6F775F4275735F5634
:101DA0006F6C742000463130204F7665725F53703F
:101DB000656564202000463131204F75745F6F6681
:101DC0005F4374726C200046313220552D436170A0
:101DD000204F56202020200046313320552D4361CE
:101DE0007020565F53656E730046313420552D4385
:101DF0006170204F56202020200046313520552D7F
:101E0000436170204F542020202000463136204F5F
:101E1000435F412020202020202020004631372011
:101E20004F435F42202020202020202000463138D0
:101E3000204F435F432020202020202020004631D7
:101E400039204F7665725F566F6C745F494E00465D
:101E50003230204C6F775F566F6C745F494E2000B4
:101E6000463231204F7665725F54656D70202020B8
:101E700000463232204465766963655F53686F724D
:101E80007400463233204368617267696E675F454C
:101E900072720046323420476174654472765F5036
:101EA00077722000463235204578745F4661756C44
:101EB0007420202000463236204E6F5F43757272C8
:101EC000656E74202000463237204F70656E2050BA
:101ED00068617365202000463238204D6F746F7240
:101EE000204C6F636B202000463239204B6579709F
:101EF00061645F4572726F72004633302053796EB1
:101F000063436F6D6D5F45727200463331204C69DB
:101F10006E655F5556202020202000463332204C2D
:101F2000696E655F4F50454E2020200046333320B8
:101F30004C696E655F4F56202020202000463334C8
:101F4000204C696E655F5365715F45727200463360
:101F500035204C696E655F556E62616C20200046CD
:101F600033362050726F66696275735F4572720016
:101F700046333720465F4C6F67696320312020204D
:101F80000046333820465F4C6F676963203220205B
:101F90002000463339204D61737465725F46617568
:101FA0006C74004634302049696E69745F4368611F
:101FB000726765005B305D436C72204661756C74BE
:101FC0004C697374202020205B315D5379737465F4
:101FD0006D20526573657420000000005B325D5017
:101FE0006172616D65746572202020200000000020
:101FF00052657365742D3E5B456E7465725D20009D
:10200000000000002020436F6D706C6574652E2EFB
:102010002E20202000000000496E697469616C69FF
:102020007A696E672E2E2E00000000004552522065
:102030005B5761726E696E675D0000000000000012
:102040005731332044726976652043616C2E00005D
:10205000000000005B305D4163636573733D4C2598
:1020600064202020200000005B315D41646D6973B5
:1020700073696F6E20202020000000005B325D50ED
:102080007764204368616E676520202000000000AF
:102090002020456E7465723A2025642564256425E8
:1020A000642020202020436F6D706C6574652E2E97
:1020B0002E20202000000000202050617373776FD5
:1020C00072645B4C25645D20200000002041646D3B
:1020D00069747465642E5B4C25645D20000000000B
:1020E0004E65772050617373776F72645B4C256423
:1020F0005D000000FEBA0164AB0062AB004560AB5E
:10210000008052AB00405EAB002054AB00105CABD3
:10211000000856AB00045AAB000250AB000158ABAC
:1021200000FBFEFF01A4AB00A2AB008094AB00401B
:10213000A0AB002096AB00109EAB000898AB00044B
:102140009CAB000292AB00019AAB00FB00008895AB
:10215000FECF0CE8009374000BE20DBF08E00EBF49
:10216000C0E0D7E00E94ADB1002311F00E94BFB1E2
:102170000E9418AD0E94A6100C94A610149F102D5A
:10218000059F100D049F002D110D089500241124AA
:10219000EFE0001F111F001C111C0416150610F0A3
:1021A000041A150AEA95AAF7001F111FA00100954D
:1021B000109508955195419550400895FF27552356
:1021C00012F4F160F7DF112312F4F09507D00E94AA
:1021D000C610F0FD03D0F1FDEDCF089511950195E6
:1021E000104008954A952AF036952795179507953A
:1021F000F9CF0895002411241001E0E2EA9592F04D
:10220000001F111F221F331F001C111C221C331C16
:10221000041615062606370688F3041A150A260A38
:10222000370AECCF001F111F221F331FA001B1017D
:102230000095109520953095089577916791579165
:102240004791179011FA2790379007900CBE089588
:10225000F7DF041B10E003C0F2DF041B150B20E0C6
:1022600030E005C0EADF041B150B260B370B28F105
:1022700010FC25C047910790E00FF11F04171005CF
:1022800040E024073407C8F486F412FE05C0E00FCE
:10229000F11F0791069002C006910024F101E01B96
:1022A000F0090CB700400CBF1994E00FF11FE00FCC
:1022B000F11F2790379007900CBEF101199411F48B
:1022C000C6F7E3CF319612FC31960EF0329650E00D
:1022D00060E070E047914B3F48F079F34F3F29F0C1
:1022E0004E3F11F07791679157914791041B150B61
:1022F000260B370B29F308F3E5CFFA92EA92DA922C
:10230000CA92BA92AA929A928A927A926A925A92AD
:102310004A92BA93AA939A938A930895FF84EE847B
:10232000DD84CC84BB84AA84998488847F806E8079
:102330005D804C80BB81AA8199818881F0E0EC0F9F
:10234000FD1FEF0108951BB110741BB9009302012A
:102350000BB1007400620BB90F920F900BB10074B7
:102360000BB902E30E948CB108951BB11074106187
:102370001BB9009302010BB1007400630BB90F92FB
:102380000F900BB1007400610BB902E30E948CB195
:102390000895012BD8DF0FE0D6DF08950CE0D3DFDE
:1023A0000FEF009300800895BA93AA93D901CBDF71
:1023B00003C00C91DADF11960C910023D1F7A9919B
:1023C000B991089508E3BFDF0CE0BDDF06E0BBDF95
:1023D00001E0B9DF02E010E00E9498B10895002307
:1023E00011F05E9A08955E9808950DED16E320E0D1
:1023F000ECE9FBE900831183228300E000939A9AC1
:1024000000E00093008000E010E00093949A1093A5
:10241000959A00E010E00093929A1093939A089591
:10242000002349F500919A9A002391F40091929A21
:102430001091939A1A930A930CE218E00E9400A656
:102440002296980100EC0E94D4110E94CE110895AA
:102450000091949A1091959A1A930A930CE218E0BD
:102460000E9400A62296980100EC0E94D41101E07F
:102470000E9495350895013009F067C000919A9A3D
:10248000002389F50091929A1091939A012B31F4CF
:102490002DE338E000EC0E94D41122C00091929A02
:1024A0001091939A013020E0120731F42EE438E0C5
:1024B00000EC0E94D41114C00091929A1091939A4A
:1024C000023020E0120731F42FE538E000EC0E94E2
:1024D000D41106C000E010E00093929A1093939AF2
:1024E0000E94CE1108950091949A1091959A012B13
:1024F00031F42DE338E000EC0E94D41122C00091A9
:10250000949A1091959A013020E0120731F42EE44C
:1025100038E000EC0E94D41114C00091949A1091FC
:10252000959A023020E0120731F42FE538E000ECF4
:102530000E94D41106C000E010E00093949A10931A
:10254000959A04E00E9495350895023009F04BC039
:1025500000919A9A002319F50091929A1091939AFA
:10256000012B31F420E738E000EC0E94D41114C0B4
:102570000091929A1091939A013020E0120731F461
:1025800021E838E000EC0E94D41106C000E010E021
:102590000093929A1093939A0E94CE1108950091FD
:1025A000949A1091959A012B31F420E738E000ECD1
:1025B0000E94D41114C00091949A1091959A013000
:1025C00020E0120731F421E838E000EC0E94D41139
:1025D00006C000E010E00093949A1093959A04E0EE
:1025E0000E9495350895033009F04BC000919A9AE6
:1025F000002319F50091929A1091939A012B31F4CE
:1026000022E938E000EC0E94D41114C00091929AA3
:102610001091939A013020E0120731F423EA38E058
:1026200000EC0E94D41106C000E010E00093929AE2
:102630001093939A0E94CE1108950091949A10914C
:10264000959A012B31F422E938E000EC0E94D41174
:1026500014C00091949A1091959A013020E01207CD
:1026600031F423EA38E000EC0E94D41106C000E007
:1026700010E00093949A1093959A04E00E94953587
:102680000895043009F04BC000919A9A002319F57F
:102690000091929A1091939A012B31F424EB38E037
:1026A00000EC0E94D41114C00091929A1091939A58
:1026B000013020E0120731F425EC38E000EC0E94F4
:1026C000D41106C000E010E00093929A1093939A00
:1026D0000E94CE1108950091949A1091959A012B21
:1026E00031F426ED38E000EC0E94D41114C00091C2
:1026F000949A1091959A013020E0120731F427EE58
:1027000038E000EC0E94D41106C000E010E0009315
:10271000949A1093959A04E00E9495350895053097
:1027200009F045C000919A9A002301F54AE050E073
:102730000091929A1091939A0E94C6105A934A93CC
:102740004AE050E00091929A1091939A0E94DE1014
:102750001A930A9308EF18E00E9400A624969801A5
:1027600000EC0E94D4110E94CE1108954AE050E07E
:102770000091949A1091959A0E94C6105A934A9388
:102780004AE050E00091949A1091959A0E94DE10D0
:102790001A930A9308EF18E00E9400A62496980165
:1027A00000EC0E94D41106E00E9495350895063091
:1027B00009F045C000919A9A002301F54AE050E0E3
:1027C0000091929A1091939A0E94C6105A934A933C
:1027D0004AE050E00091929A1091939A0E94DE1084
:1027E0001A930A930EE019E00E9400A6249698011D
:1027F00000EC0E94D4110E94CE1108954AE050E0EE
:102800000091949A1091959A0E94C6105A934A93F7
:102810004AE050E00091949A1091959A0E94DE103F
:102820001A930A930EE019E00E9400A624969801DC
:1028300000EC0E94D41106E00E94953508950730FF
:1028400009F045C000919A9A002301F54AE050E052
:102850000091929A1091939A0E94C6105A934A93AB
:102860004AE050E00091929A1091939A0E94DE10F3
:102870001A930A9304E219E00E9400A62496980194
:1028800000EC0E94D4110E94CE1108954AE050E05D
:102890000091949A1091959A0E94C6105A934A9367
:1028A0004AE050E00091949A1091959A0E94DE10AF
:1028B0001A930A9304E219E00E9400A62496980154
:1028C00000EC0E94D41106E00E949535089508306E
:1028D00009F045C000919A9A002301F54AE050E0C2
:1028E0000091929A1091939A0E94C6105A934A931B
:1028F0004AE050E00091929A1091939A0E94DE1063
:102900001A930A930AE319E00E9400A624969801FC
:1029100000EC0E94D4110E94CE1108954AE050E0CC
:102920000091949A1091959A0E94C6105A934A93D6
:102930004AE050E00091949A1091959A0E94DE101E
:102940001A930A930AE319E00E9400A624969801BC
:1029500000EC0E94D41106E00E94953508950930DC
:1029600049F500919A9A002391F40091929A10915E
:10297000939A1A930A9300E519E00E9400A6229602
:10298000980100EC0E94D4110E94CE11089500918C
:10299000949A1091959A1A930A9300E519E00E946F
:1029A00000A62296980100EC0E94D41101E00E943A
:1029B000953508950A3049F500919A9A002391F4CB
:1029C0000091929A1091939A1A930A9300E619E053
:1029D0000E9400A62296980100EC0E94D4110E9449
:1029E000CE1108950091949A1091959A1A930A9392
:1029F00000E619E00E9400A62296980100EC0E94D1
:102A0000D41101E00E94953508950B3009F083C080
:102A100000919A9A0023F9F50091929A1091939A55
:102A2000012B31F421E739E000EC0E94D41130C0D1
:102A30000091929A1091939A013020E0120731F49C
:102A400022E839E000EC0E94D41122C00091929A51
:102A50001091939A023020E0120731F423E939E013
:102A600000EC0E94D41114C00091929A1091939A94
:102A7000033020E0120731F424EA39E000EC0E9430
:102A8000D41106C000E010E00093929A1093939A3C
:102A90000E94CE1108950091949A1091959A012B5D
:102AA00031F421E739E000EC0E94D41130C00091EC
:102AB000949A1091959A013020E0120731F422E89F
:102AC00039E000EC0E94D41122C00091949A109138
:102AD000959A023020E0120731F423E939E000EC46
:102AE0000E94D41114C00091949A1091959A0330C9
:102AF00020E0120731F424EA39E000EC0E94D411FE
:102B000006C000E010E00093949A1093959A04E0B8
:102B10000E94953508950C3009F045C000919A9AAD
:102B2000002301F54AE050E00091929A1091939AA7
:102B30000E94C6105A934A934AE050E00091929A3C
:102B40001091939A0E94DE101A930A9305EB19E0F4
:102B50000E9400A62496980100EC0E94D4110E94C5
:102B6000CE1108954AE050E00091949A1091959A00
:102B70000E94C6105A934A934AE050E00091949AFA
:102B80001091959A0E94DE101A930A9305EB19E0B2
:102B90000E9400A62496980100EC0E94D41106E041
:102BA0000E94953508950D3009F0A0C000919A9AC1
:102BB000002309F04DC00091929A1091939A012B35
:102BC00031F42BEC39E000EC0E94D4113EC00091AE
:102BD000929A1091939A013020E0120731F42CED73
:102BE00039E000EC0E94D41130C00091929A10910B
:102BF000939A023020E0120731F42DEE39E000EC18
:102C00000E94D41122C00091929A1091939A03309D
:102C100020E0120731F42EEF39E000EC0E94D411CD
:102C200014C00091929A1091939A043020E01207F8
:102C300031F42FE03AE000EC0E94D41106C000E02D
:102C400010E00093929A1093939A0E94CE110895E7
:102C50000091949A1091959A012B31F42BEC39E064
:102C600000EC0E94D4113EC00091949A1091959A64
:102C7000013020E0120731F42CED39E000EC0E9425
:102C8000D41130C00091949A1091959A023020E0AE
:102C9000120731F42DEE39E000EC0E94D41122C06D
:102CA0000091949A1091959A033020E0120731F424
:102CB0002EEF39E000EC0E94D41114C00091949AD8
:102CC0001091959A043020E0120731F42FE03AE099
:102CD00000EC0E94D41106C000E010E00093949A2A
:102CE0001093959A04E00E94953508950E3009F0EE
:102CF00045C000919A9A002301F54AE050E0009106
:102D0000929A1091939A0E94C6105A934A934AE05D
:102D100050E00091929A1091939A0E94DE101A93BB
:102D20000A9300E21AE00E9400A62496980100ECA3
:102D30000E94D4110E94CE1108954AE050E0009103
:102D4000949A1091959A0E94C6105A934A934AE019
:102D500050E00091949A1091959A0E94DE101A9377
:102D60000A9300E21AE00E9400A62496980100EC63
:102D70000E94D41106E00E9495350895033409F0AD
:102D800045C000919A9A002301F544E650E0009175
:102D9000929A1091939A0E94C6105A934A9344E6CD
:102DA00050E00091929A1091939A0E94DE101A932B
:102DB0000A9306E31AE00E9400A62496980100EC0C
:102DC0000E94D4110E94CE11089544E650E0009173
:102DD000949A1091959A0E94C6105A934A9344E689
:102DE00050E00091949A1091959A0E94DE101A93E7
:102DF0000A9306E31AE00E9400A62496980100ECCC
:102E00000E94D41109E00E9495350895093409F013
:102E100045C000919A9A002301F544E650E00091E4
:102E2000929A1091939A0E94C6105A934A9344E63C
:102E300050E00091929A1091939A0E94DE101A939A
:102E40000A930CE41AE00E9400A62496980100EC74
:102E50000E94D4110E94CE11089544E650E00091E2
:102E6000949A1091959A0E94C6105A934A9344E6F8
:102E700050E00091949A1091959A0E94DE101A9356
:102E80000A930CE41AE00E9400A62496980100EC34
:102E90000E94D41109E00E94953508950A3409F082
:102EA00045C000919A9A002301F544E650E0009154
:102EB000929A1091939A0E94C6105A934A9344E6AC
:102EC00050E00091929A1091939A0E94DE101A930A
:102ED0000A9302E61AE00E9400A62496980100ECEC
:102EE0000E94D4110E94CE11089544E650E0009152
:102EF000949A1091959A0E94C6105A934A9344E668
:102F000050E00091949A1091959A0E94DE101A93C5
:102F10000A9302E61AE00E9400A62496980100ECAB
:102F20000E94D41109E00E94953508950F3009F0F0
:102F300067C000919A9A002389F50091929A1091A6
:102F4000939A012B31F428E73AE000EC0E94D41167
:102F500022C00091929A1091939A013020E01207BA
:102F600031F429E83AE000EC0E94D41114C0009139
:102F7000929A1091939A023020E0120731F42AE9D4
:102F80003AE000EC0E94D41106C000E010E000938B
:102F9000929A1093939A0E94CE1108950091949A58
:102FA0001091959A012B31F428E73AE000EC0E9449
:102FB000D41122C00091949A1091959A013020E08A
:102FC000120731F429E83AE000EC0E94D41114C051
:102FD0000091949A1091959A023020E0120731F4F2
:102FE0002AE93AE000EC0E94D41106C000E010E0AB
:102FF0000093949A1093959A04E00E949535089551
:10300000003109F045C000919A9A002301F54AE089
:1030100050E00091929A1091939A0E94C6105A9390
:103020004A934AE050E00091929A1091939A0E943C
:10303000DE101A930A930BEA1AE00E9400A6249667
:10304000980100EC0E94D4110E94CE1108954AE02C
:1030500050E00091949A1091959A0E94C6105A934C
:103060004A934AE050E00091949A1091959A0E94F8
:10307000DE101A930A9302EC1AE00E9400A624962E
:10308000980100EC0E94D41106E00E949535089545
:10309000013109F04BC000919A9A002319F5009173
:1030A000929A1091939A012B31F428ED3AE000ECBA
:1030B0000E94D41114C00091929A1091939A0130F9
:1030C00020E0120731F429EE3AE000EC0E94D4111E
:1030D00006C000E010E00093929A1093939A0E9429
:1030E000CE1108950091949A1091959A012B31F484
:1030F00028ED3AE000EC0E94D41114C00091949A9B
:103100001091959A013020E0120731F429EE3AE04F
:1031100000EC0E94D41106C000E010E00093949AE5
:103120001093959A04E00E9495350895023109F0B4
:103130004BC000919A9A002319F50091929A109130
:10314000939A012B31F42AEF3AE000EC0E94D4115B
:1031500014C00091929A1091939A013020E01207C6
:1031600031F42BE03BE000EC0E94D41106C000E0FB
:1031700010E00093929A1093939A0E94CE110895B2
:103180000091949A1091959A012B31F42AEF3AE02C
:1031900000EC0E94D41114C00091949A1091959A59
:1031A000013020E0120731F42BE03BE000EC0E94FC
:1031B000D41106C000E010E00093949A1093959A01
:1031C00004E00E94953508950B3409F0BCC00091CD
:1031D0009A9A002309F05BC00091929A1091939AF9
:1031E000012B31F428ED3AE000EC0E94D4114CC0E0
:1031F0000091929A1091939A013020E0120731F4D5
:103200002CE13BE000EC0E94D4113EC00091929A68
:103210001091939A023020E0120731F42DE23BE046
:1032200000EC0E94D41130C00091929A1091939AB0
:10323000033020E0120731F42EE33BE000EC0E9463
:10324000D41122C00091929A1091939A043020E0F8
:10325000120731F42FE43BE000EC0E94D41114C0BB
:103260000091929A1091939A053020E0120731F460
:1032700020E63BE000EC0E94D41106C000E010E024
:103280000093929A1093939A0E94CE110895009100
:10329000949A1091959A012B31F428ED3AE000ECC4
:1032A0000E94D4114CC00091949A1091959A0130CB
:1032B00020E0120731F42CE13BE000EC0E94D41135
:1032C0003EC00091949A1091959A023020E0120726
:1032D00031F42DE23BE000EC0E94D41130C00091AB
:1032E000949A1091959A033020E0120731F42EE35E
:1032F0003BE000EC0E94D41122C00091949A1091FE
:10330000959A043020E0120731F42FE43BE000EC02
:103310000E94D41114C00091949A1091959A05308E
:1033200020E0120731F420E63BE000EC0E94D411CB
:1033300006C000E010E00093949A1093959A04E080
:103340000E9495350895033149F500919A9A00231A
:1033500091F40091929A1091939A1A930A9301E72B
:103360001BE00E9400A62296980100EC0E94D41156
:103370000E94CE1108950091949A1091959A1A93F3
:103380000A9301E81BE00E9400A62296980100EC37
:103390000E94D41101E00E9495350895043149F549
:1033A00000919A9A002391F40091929A1091939A25
:1033B0001A930A9302E91BE00E9400A62296980144
:1033C00000EC0E94D4110E94CE1108950091949AAD
:1033D0001091959A1A930A9302E91BE00E9400A6A5
:1033E0002296980100EC0E94D41101E00E949535CC
:1033F0000895053149F500919A9A002391F40091BE
:10340000929A1091939A1A930A9303EA1BE00E94EE
:1034100000A62296980100EC0E94D4110E94CE11C1
:1034200008950091949A1091959A1A930A9303EA39
:103430001BE00E9400A62296980100EC0E94D41185
:1034400001E00E9495350895063109F083C000918E
:103450009A9A0023F9F50091929A1091939A012B70
:1034600031F424EB3BE000EC0E94D41130C0009119
:10347000929A1091939A013020E0120731F425ECD2
:103480003BE000EC0E94D41122C00091929A10916E
:10349000939A023020E0120731F426ED3BE000EC75
:1034A0000E94D41114C00091929A1091939A033003
:1034B00020E0120731F427EE3BE000EC0E94D4112B
:1034C00006C000E010E00093929A1093939A0E9435
:1034D000CE1108950091949A1091959A012B31F490
:1034E00024EB3BE000EC0E94D41130C00091949A90
:1034F0001091959A013020E0120731F425EC3BE061
:1035000000EC0E94D41122C00091949A1091959AD7
:10351000023020E0120731F426ED3BE000EC0E947F
:10352000D41114C00091949A1091959A033020E020
:10353000120731F427EE3BE000EC0E94D41106C0E4
:1035400000E010E00093949A1093959A04E00E9492
:1035500095350895073109F045C000919A9A0023E6
:1035600001F54AE050E00091929A1091939A0E94DE
:10357000C6105A934A934AE050E00091929A1091F3
:10358000939A0E94DE101A930A9308EF1BE00E94A0
:1035900000A62496980100EC0E94D4110E94CE113E
:1035A00008954AE050E00091949A1091959A0E94F3
:1035B000C6105A934A934AE050E00091949A1091B1
:1035C000959A0E94DE101A930A9308EF1BE00E945E
:1035D00000A62496980100EC0E94D41106E00E94F7
:1035E00095350895083109F067C000919A9A002333
:1035F00089F50091929A1091939A012B31F428ED5C
:103600003AE000EC0E94D41122C00091929A1091ED
:10361000939A013020E0120731F42EE03CE000ECF8
:103620000E94D41114C00091929A1091939A023082
:1036300020E0120731F42FE13CE000EC0E94D411AD
:1036400006C000E010E00093929A1093939A0E94B3
:10365000CE1108950091949A1091959A012B31F40E
:1036600028ED3AE000EC0E94D41122C00091949A17
:103670001091959A013020E0120731F42EE03CE0E1
:1036800000EC0E94D41114C00091949A1091959A64
:10369000023020E0120731F42FE13CE000EC0E9400
:1036A000D41106C000E010E00093949A1093959A0C
:1036B00004E00E9495350895093109F0A0C00091F9
:1036C0009A9A002309F04DC00091929A1091939A12
:1036D000012B31F424EB3BE000EC0E94D4113EC0FE
:1036E0000091929A1091939A013020E0120731F4E0
:1036F00025EC3BE000EC0E94D41130C00091929A7E
:103700001091939A023020E0120731F420E33CE05C
:1037100000EC0E94D41122C00091929A1091939AC9
:10372000033020E0120731F427EE3BE000EC0E946A
:10373000D41114C00091929A1091939A043020E011
:10374000120731F421E43CE000EC0E94D41106C0E1
:1037500000E010E00093929A1093939A0E94CE1189
:1037600008950091949A1091959A012B31F424EBCD
:103770003BE000EC0E94D4113EC00091949A10915D
:10378000959A013020E0120731F425EC3BE000EC83
:103790000E94D41130C00091949A1091959A0230F1
:1037A00020E0120731F420E33CE000EC0E94D41149
:1037B00022C00091949A1091959A033020E012074C
:1037C00031F427EE3BE000EC0E94D41114C00091CC
:1037D000949A1091959A043020E0120731F421E474
:1037E0003CE000EC0E94D41106C000E010E0009321
:1037F000949A1093959A04E00E94953508950A31A1
:1038000009F045C000919A9A002301F54AE050E082
:103810000091929A1091939A0E94C6105A934A93DB
:103820004AE050E00091929A1091939A0E94DE1023
:103830001A930A9302E51CE00E9400A624969801C0
:1038400000EC0E94D4110E94CE1108954AE050E08D
:103850000091949A1091959A0E94C6105A934A9397
:103860004AE050E00091949A1091959A0E94DE10DF
:103870001A930A9307E61CE00E9400A6249698017A
:1038800000EC0E94D41106E00E94953508950B319A
:1038900009F067C000919A9A002389F50091929AE5
:1038A0001091939A012B31F428ED3AE000EC0E943C
:1038B000D41122C00091929A1091939A013020E085
:1038C000120731F42DE73CE000EC0E94D41114C043
:1038D0000091929A1091939A023020E0120731F4ED
:1038E0002EE83CE000EC0E94D41106C000E010E09D
:1038F0000093929A1093939A0E94CE11089500918A
:10390000949A1091959A012B31F428ED3AE000EC4D
:103910000E94D41122C00091949A1091959A01307E
:1039200020E0120731F42DE73CE000EC0E94D411B6
:1039300014C00091949A1091959A023020E01207D9
:1039400031F42EE83CE000EC0E94D41106C000E007
:1039500010E00093949A1093959A04E00E94953594
:1039600008950C3109F04BC000919A9A002319F583
:103970000091929A1091939A012B31F428ED3AE03C
:1039800000EC0E94D41114C00091929A1091939A65
:10399000013020E0120731F42FE93CE000EC0E94F6
:1039A000D41106C000E010E00093929A1093939A0D
:1039B0000E94CE1108950091949A1091959A012B2E
:1039C00031F428ED3AE000EC0E94D41114C00091CB
:1039D000949A1091959A013020E0120731F42FE962
:1039E0003CE000EC0E94D41106C000E010E000931F
:1039F000949A1093959A04E00E94953508950D319C
:103A000009F083C000919A9A0023F9F50091929AE7
:103A10001091939A012B31F420EB3CE000EC0E94D2
:103A2000D41130C00091929A1091939A013020E005
:103A3000120731F423EC3CE000EC0E94D41122C0C8
:103A40000091929A1091939A023020E0120731F47B
:103A500026ED3CE000EC0E94D41114C00091929A33
:103A60001091939A033020E0120731F429EE3CE0E4
:103A700000EC0E94D41106C000E010E00093929A7E
:103A80001093939A0E94CE1108950091949A1091E8
:103A9000959A012B31F420EB3CE000EC0E94D4110C
:103AA00030C00091949A1091959A013020E012074D
:103AB00031F423EC3CE000EC0E94D41122C00091D0
:103AC000949A1091959A023020E0120731F426ED75
:103AD0003CE000EC0E94D41114C00091949A109123
:103AE000959A033020E0120731F429EE3CE000EC17
:103AF0000E94D41106C000E010E00093949A109345
:103B0000959A04E00E94953508950E3109F045C05C
:103B100000919A9A002301F54AE050E00091929AB0
:103B20001091939A0E94C6105A934A934AE050E02B
:103B30000091929A1091939A0E94DE101A930A9320
:103B40000CEF1CE00E9400A62496980100EC0E9455
:103B5000D4110E94CE1108954AE050E00091949A49
:103B60001091959A0E94C6105A934A934AE050E0E9
:103B70000091949A1091959A0E94DE101A930A93DC
:103B80000CEF1CE00E9400A62496980100EC0E9415
:103B9000D41106E00E94953508950F3109F045C013
:103BA00000919A9A002301F54AE050E00091929A20
:103BB0001091939A0E94C6105A934A934AE050E09B
:103BC0000091929A1091939A0E94DE101A930A9390
:103BD00002E11DE00E9400A62496980100EC0E94DC
:103BE000D4110E94CE1108954AE050E00091949AB9
:103BF0001091959A0E94C6105A934A934AE050E059
:103C00000091949A1091959A0E94DE101A930A934B
:103C100002E11DE00E9400A62496980100EC0E949B
:103C2000D41106E00E9495350895003249F50091BF
:103C30009A9A002391F40091929A1091939A1A9370
:103C40000A9308E21DE00E9400A62296980100EC6B
:103C50000E94D4110E94CE1108950091949A10915F
:103C6000959A1A930A9308E21DE00E9400A62296F4
:103C7000980100EC0E94D41101E00E94953508954E
:103C8000083409F045C000919A9A002301F548EEE6
:103C900053E00091929A1091939A0E94C6105A9301
:103CA0004A9348EE53E00091929A1091939A0E94A1
:103CB000DE101A930A9308E31DE00E9400A62496E2
:103CC000980100EC0E94D4110E94CE11089548EE94
:103CD00053E00091949A1091959A0E94C6105A93BD
:103CE0004A9348EE53E00091949A1091959A0E945D
:103CF000DE101A930A9308E31DE00E9400A62496A2
:103D0000980100EC0E94D41107E00E9495350895B7
:103D1000013209F045C000919A9A002301F54AE06A
:103D200050E00091929A1091939A0E94C6105A9373
:103D30004A934AE050E00091929A1091939A0E941F
:103D4000DE101A930A930EE41DE00E9400A624964A
:103D5000980100EC0E94D4110E94CE1108954AE00F
:103D600050E00091949A1091959A0E94C6105A932F
:103D70004A934AE050E00091949A1091959A0E94DB
:103D8000DE101A930A930EE41DE00E9400A624960A
:103D9000980100EC0E94D41106E00E949535089528
:103DA000023209F045C000919A9A002301F54AE0D9
:103DB00050E00091929A1091939A0E94C6105A93E3
:103DC0004A934AE050E00091929A1091939A0E948F
:103DD000DE101A930A9304E61DE00E9400A62496C2
:103DE000980100EC0E94D4110E94CE1108954AE07F
:103DF00050E00091949A1091959A0E94C6105A939F
:103E00004A934AE050E00091949A1091959A0E944A
:103E1000DE101A930A9304E61DE00E9400A6249681
:103E2000980100EC0E94D41106E00E949535089597
:103E3000033209F083C000919A9A0023F9F50091AA
:103E4000929A1091939A012B31F428ED3AE000EC0C
:103E50000E94D41130C00091929A1091939A01302F
:103E600020E0120731F42AE73DE000EC0E94D41173
:103E700022C00091929A1091939A023020E012078A
:103E800031F42BE83DE000EC0E94D41114C0009105
:103E9000929A1091939A033020E0120731F42CE9A2
:103EA0003DE000EC0E94D41106C000E010E0009359
:103EB000929A1093939A0E94CE1108950091949A29
:103EC0001091959A012B31F428ED3AE000EC0E9414
:103ED000D41130C00091949A1091959A013020E04D
:103EE000120731F42AE73DE000EC0E94D41122C011
:103EF0000091949A1091959A023020E0120731F4C3
:103F00002BE83DE000EC0E94D41114C00091949A7B
:103F10001091959A033020E0120731F42CE93DE02E
:103F200000EC0E94D41106C000E010E00093949AC7
:103F30001093959A04E00E9495350895043209F093
:103F400083C000919A9A0023F9F50091929A1091FA
:103F5000939A012B31F42DEA3DE000EC0E94D4113C
:103F600030C00091929A1091939A013020E012078C
:103F700031F42EEB3DE000EC0E94D41122C0009100
:103F8000929A1091939A023020E0120731F42FECAC
:103F90003DE000EC0E94D41114C00091929A10915F
:103FA000939A033020E0120731F420EE3DE000EC5C
:103FB0000E94D41106C000E010E00093929A109382
:103FC000939A0E94CE1108950091949A1091959A17
:103FD000012B31F42DEA3DE000EC0E94D41130C0F9
:103FE0000091949A1091959A013020E0120731F4D3
:103FF0002EEB3DE000EC0E94D41122C00091949A77
:104000001091959A023020E0120731F42FEC3DE038
:1040100000EC0E94D41114C00091949A1091959ACA
:10402000033020E0120731F420EE3DE000EC0E9466
:10403000D41106C000E010E00093949A1093959A72
:1040400004E00E9495350895053209F067C000919B
:104050009A9A002389F50091929A1091939A012BD4
:1040600031F421EF3DE000EC0E94D41122C0009118
:10407000929A1091939A013020E0120731F422E0D5
:104080003EE000EC0E94D41114C00091929A10916D
:10409000939A023020E0120731F423E13EE000EC75
:1040A0000E94D41106C000E010E00093929A109391
:1040B000939A0E94CE1108950091949A1091959A26
:1040C000012B31F421EF3DE000EC0E94D41122C01D
:1040D0000091949A1091959A013020E0120731F4E2
:1040E00022E03EE000EC0E94D41114C00091949AAA
:1040F0001091959A023020E0120731F423E13EE05E
:1041000000EC0E94D41106C000E010E00093949AE5
:104110001093959A04E00E9495350895063249F56A
:1041200000919A9A002391F40091929A1091939A97
:104130001A930A9304E21EE00E9400A622969801B8
:1041400000EC0E94D4110E94CE1108950091949A1F
:104150001091959A1A930A9304E21EE00E9400A619
:104160002296980100EC0E94D41101E00E9495353E
:104170000895073209F04BC000919A9A002319F56F
:104180000091929A1091939A012B31F425E33EE02D
:1041900000EC0E94D41114C00091929A1091939A4D
:1041A000013020E0120731F426E43EE000EC0E94EA
:1041B000D41106C000E010E00093929A1093939AF5
:1041C0000E94CE1108950091949A1091959A012B16
:1041D00031F425E33EE000EC0E94D41114C00091BC
:1041E000949A1091959A013020E0120731F426E458
:1041F0003EE000EC0E94D41106C000E010E0009305
:10420000949A1093959A04E00E9495350895083287
:1042100009F024C300919A9A002309F08FC10091FC
:10422000929A1091939A012B31F427E53EE000EC2D
:104230000E94D41180C10091929A1091939A0130FA
:1042400020E0120731F428E63EE000EC0E94D41191
:1042500072C10091929A1091939A023020E0120755
:1042600031F429E73EE000EC0E94D41164C10091D2
:10427000929A1091939A033020E0120731F42AE8C1
:104280003EE000EC0E94D41156C10091929A109128
:10429000939A043020E0120731F42BE93EE000EC61
:1042A0000E94D41148C10091929A1091939A0530BE
:1042B00020E0120731F42CEA3EE000EC0E94D41119
:1042C0003AC10091929A1091939A063020E0120719
:1042D00031F42DEB3EE000EC0E94D4112CC1009192
:1042E000929A1091939A073020E0120731F42EEC45
:1042F0003EE000EC0E94D4111EC10091929A1091F0
:10430000939A083020E0120731F42FED3EE000ECE4
:104310000E94D41110C10091929A1091939A093081
:1043200020E0120731F420EF3EE000EC0E94D411AF
:1043300002C10091929A1091939A0A3020E01207DC
:1043400031F421E03FE000EC0E94D411F4C0009170
:10435000929A1091939A0B3020E0120731F422E1E7
:104360003FE000EC0E94D411E6C00091929A1091B7
:10437000939A0D3020E0120731F423E23FE000EC85
:104380000E94D411D8C00091929A1091939A0E3045
:1043900020E0120731F424E33FE000EC0E94D41146
:1043A000CAC00091929A1091939A0F3020E01207A0
:1043B00031F425E43FE000EC0E94D411BCC0009130
:1043C000929A1091939A003120E0120731F426E579
:1043D0003FE000EC0E94D411AEC00091929A10917F
:1043E000939A013120E0120731F427E63FE000EC18
:1043F0000E94D411A0C00091929A1091939A023118
:1044000020E0120731F428E73FE000EC0E94D411CD
:1044100092C00091929A1091939A033120E0120772
:1044200031F429E83FE000EC0E94D41184C00091EF
:10443000929A1091939A043120E0120731F42AE9FC
:104440003FE000EC0E94D41176C00091929A109146
:10445000939A053120E0120731F42BEA3FE000EC9B
:104460000E94D41168C00091929A1091939A0631DB
:1044700020E0120731F42CEB3FE000EC0E94D41155
:104480005AC00091929A1091939A073120E0120736
:1044900031F42DEC3FE000EC0E94D4114CC00091AF
:1044A000929A1091939A083120E0120731F42EED80
:1044B0003FE000EC0E94D4113EC00091929A10910E
:1044C000939A093120E0120731F42FEE3FE000EC1F
:1044D0000E94D41130C00091929A1091939A0A319F
:1044E00020E0120731F420E030E100EC0E94D4110A
:1044F00022C00091929A1091939A0B3120E01207FA
:1045000031F421E130E100EC0E94D41114C000919B
:10451000929A1091939A0D3120E0120731F422E221
:1045200030E100EC0E94D41106C000E010E00093DE
:10453000929A1093939A0E94CE1108950091949AA2
:104540001091959A012B31F427E53EE000EC0E9492
:10455000D41180C10091949A1091959A013020E075
:10456000120731F428E63EE000EC0E94D41172C13B
:104570000091949A1091959A023020E0120731F43C
:1045800029E73EE000EC0E94D41164C10091949AA6
:104590001091959A033020E0120731F42AE83EE0AA
:1045A00000EC0E94D41156C10091949A1091959AF2
:1045B000043020E0120731F42BE93EE000EC0E94C9
:1045C000D41148C10091949A1091959A053020E039
:1045D000120731F42CEA3EE000EC0E94D4113AC1FB
:1045E0000091949A1091959A063020E0120731F4C8
:1045F0002DEB3EE000EC0E94D4112CC10091949A66
:104600001091959A073020E0120731F42EEC3EE02D
:1046100000EC0E94D4111EC10091949A1091959AB9
:10462000083020E0120731F42FED3EE000EC0E944C
:10463000D41110C10091949A1091959A093020E0FC
:10464000120731F420EF3EE000EC0E94D41102C1C9
:104650000091949A1091959A0A3020E0120731F453
:1046600021E03FE000EC0E94D411F4C00091949A44
:104670001091959A0B3020E0120731F422E13FE0CF
:1046800000EC0E94D411E6C00091949A1091959A82
:104690000D3020E0120731F423E23FE000EC0E94ED
:1046A000D411D8C00091949A1091959A0E3020E0C0
:1046B000120731F424E33FE000EC0E94D411CAC099
:1046C0000091949A1091959A0F3020E0120731F4DE
:1046D00025E43FE000EC0E94D411BCC00091949A04
:1046E0001091959A003120E0120731F426E53FE061
:1046F00000EC0E94D411AEC00091949A1091959A4A
:10470000013120E0120731F427E63FE000EC0E947F
:10471000D411A0C00091949A1091959A023120E092
:10472000120731F428E73FE000EC0E94D41192C058
:104730000091949A1091959A033120E0120731F478
:1047400029E83FE000EC0E94D41184C00091949AC3
:104750001091959A043120E0120731F42AE93FE0E4
:1047600000EC0E94D41176C00091949A1091959A11
:10477000053120E0120731F42BEA3FE000EC0E9403
:10478000D41168C00091949A1091959A063120E056
:10479000120731F42CEB3FE000EC0E94D4115AC018
:1047A0000091949A1091959A073120E0120731F404
:1047B0002DEC3FE000EC0E94D4114CC00091949A83
:1047C0001091959A083120E0120731F42EED3FE068
:1047D00000EC0E94D4113EC00091949A1091959AD9
:1047E000093120E0120731F42FEE3FE000EC0E9487
:1047F000D41130C00091949A1091959A0A3120E01A
:10480000120731F420E030E100EC0E94D41122C004
:104810000091949A1091959A0B3120E0120731F48F
:1048200021E130E100EC0E94D41114C00091949A6F
:104830001091959A0D3120E0120731F422E230E117
:1048400000EC0E94D41106C000E010E00093949A9E
:104850001093959A04E00E9495350895093209F065
:104860004BC000919A9A002319F50091929A1091E9
:10487000939A012B31F423E330E100EC0E94D41130
:1048800014C00091929A1091939A013020E012077F
:1048900031F424E430E100EC0E94D41106C000E0C1
:1048A00010E00093929A1093939A0E94CE1108956B
:1048B0000091949A1091959A012B31F423E330E101
:1048C00000EC0E94D41114C00091949A1091959A12
:1048D000013020E0120731F424E430E100EC0E94C2
:1048E000D41106C000E010E00093949A1093959ABA
:1048F00004E00E94953508950A3209F04BC00091FA
:104900009A9A002319F50091929A1091939A012B8B
:1049100031F425E530E100EC0E94D41114C000917F
:10492000929A1091939A013020E0120731F426E612
:1049300030E100EC0E94D41106C000E010E00093CA
:10494000929A1093939A0E94CE1108950091949A8E
:104950001091959A012B31F425E530E100EC0E948D
:10496000D41114C00091949A1091959A013020E0CE
:10497000120731F426E630E100EC0E94D41106C0A3
:1049800000E010E00093949A1093959A04E00E943E
:10499000953508950B3209F048C100919A9A002389
:1049A00009F0A1C00091929A1091939A012B31F4D1
:1049B00027E730E100EC0E94D41192C00091929A56
:1049C0001091939A013020E0120731F428E830E189
:1049D00000EC0E94D41184C00091929A1091939A95
:1049E000023020E0120731F429E930E100EC0E94A6
:1049F000D41176C00091929A1091939A033020E0DE
:104A0000120731F42AEA30E100EC0E94D41168C0A8
:104A10000091929A1091939A043020E0120731F499
:104A20002BEB30E100EC0E94D4115AC00091929A15
:104A30001091939A053020E0120731F42CEC30E10C
:104A400000EC0E94D4114CC00091929A1091939A5C
:104A5000063020E0120731F42DED30E100EC0E9429
:104A6000D4113EC00091929A1091939A073020E0A1
:104A7000120731F42EEE30E100EC0E94D41130C068
:104A80000091929A1091939A083020E0120731F425
:104A90002FEF30E100EC0E94D41122C00091929AD5
:104AA0001091939A093020E0120731F420E131E1AE
:104AB00000EC0E94D41114C00091929A1091939A24
:104AC0000A3020E0120731F421E231E100EC0E94CB
:104AD000D41106C000E010E00093929A1093939ACC
:104AE0000E94CE1108950091949A1091959A012BED
:104AF00031F427E730E100EC0E94D41192C000911C
:104B0000949A1091959A013020E0120731F428E828
:104B100030E100EC0E94D41184C00091949A10916D
:104B2000959A023020E0120731F429E930E100ECD7
:104B30000E94D41176C00091949A1091959A0330F6
:104B400020E0120731F42AEA30E100EC0E94D4118F
:104B500068C00091949A1091959A043020E0120751
:104B600031F42BEB30E100EC0E94D4115AC00091DB
:104B7000949A1091959A053020E0120731F42CECAC
:104B800030E100EC0E94D4114CC00091949A109135
:104B9000959A063020E0120731F42DED30E100EC5B
:104BA0000E94D4113EC00091949A1091959A0730BA
:104BB00020E0120731F42EEE30E100EC0E94D41117
:104BC00030C00091949A1091959A083020E0120715
:104BD00031F42FEF30E100EC0E94D41122C000919B
:104BE000949A1091959A093020E0120731F420E14F
:104BF00031E100EC0E94D41114C00091949A1091FC
:104C0000959A0A3020E0120731F421E231E100ECFC
:104C10000E94D41106C000E010E00093949A109313
:104C2000959A04E00E94953508950C3209F045C02C
:104C300000919A9A002301F540E157E20091929A7F
:104C40001091939A0E94DE105A934A9340E157E2E2
:104C50000091929A1091939A0E94DE101A930A93EF
:104C600002E311E10E9400A62496980100EC0E9444
:104C7000D4110E94CE11089540E157E20091949A18
:104C80001091959A0E94DE105A934A9340E157E2A0
:104C90000091949A1091959A0E94DE101A930A93AB
:104CA00002E311E10E9400A62496980100EC0E9404
:104CB000D41108E00E94953508950D3209F048C1DD
:104CC00000919A9A002309F0A1C00091929A109144
:104CD000939A012B31F426E431E100EC0E94D411C7
:104CE00092C00091929A1091939A013020E012079D
:104CF00031F427E531E100EC0E94D41184C0009129
:104D0000929A1091939A023020E0120731F428E62B
:104D100031E100EC0E94D41176C00091929A10917A
:104D2000939A033020E0120731F429E731E100ECD7
:104D30000E94D41168C00091929A1091939A043005
:104D400020E0120731F42AE831E100EC0E94D4118E
:104D50005AC00091929A1091939A053020E0120760
:104D600031F42BE931E100EC0E94D4114CC00091E8
:104D7000929A1091939A063020E0120731F42CEAAF
:104D800031E100EC0E94D4113EC00091929A109142
:104D9000939A073020E0120731F42DEB31E100EC5B
:104DA0000E94D41130C00091929A1091939A0830C9
:104DB00020E0120731F42EEC31E100EC0E94D41116
:104DC00022C00091929A1091939A093020E0120724
:104DD00031F42FED31E100EC0E94D41114C00091A8
:104DE000929A1091939A0A3020E0120731F420EF42
:104DF00031E100EC0E94D41106C000E010E0009305
:104E0000949A1093959A0E94CE1108950091949AC5
:104E10001091959A012B31F426E431E100EC0E94C7
:104E2000D41192C00091949A1091959A013020E08B
:104E3000120731F427E531E100EC0E94D41184C05F
:104E40000091949A1091959A023020E0120731F463
:104E500028E631E100EC0E94D41176C00091949ACA
:104E60001091959A033020E0120731F429E731E1DF
:104E700000EC0E94D41168C00091949A1091959A08
:104E8000043020E0120731F42AE831E100EC0E94FE
:104E9000D4115AC00091949A1091959A053020E04F
:104EA000120731F42BE931E100EC0E94D4114CC01F
:104EB0000091949A1091959A063020E0120731F4EF
:104EC0002CEA31E100EC0E94D4113EC00091949A8A
:104ED0001091959A073020E0120731F42DEB31E163
:104EE00000EC0E94D41130C00091949A1091959AD0
:104EF000083020E0120731F42EEC31E100EC0E9482
:104F0000D41122C00091949A1091959A093020E012
:104F1000120731F42FED31E100EC0E94D41114C0DE
:104F20000091949A1091959A0A3020E0120731F47A
:104F300020EF31E100EC0E94D41106C000E010E047
:104F40000093949A1093959A04E00E9495350895E1
:104F50000E3209F045C000919A9A002301F54AE00B
:104F600050E00091929A1091939A0E94C6105A9321
:104F70004A934AE050E00091929A1091939A0E94CD
:104F8000DE101A930A9301E012E10E9400A6249613
:104F9000980100EC0E94D4110E94CE1108954AE0BD
:104FA00050E00091949A1091959A0E94C6105A93DD
:104FB0004A934AE050E00091949A1091959A0E9489
:104FC000DE101A930A9301E012E10E9400A62496D3
:104FD000980100EC0E94D41106E00E9495350895D6
:104FE0000F3209F04BC000919A9A002319F50091F5
:104FF000929A1091939A012B31F427E132E100EC5F
:105000000E94D41114C00091929A1091939A013089
:1050100020E0120731F428E232E100EC0E94D411C2
:1050200006C000E010E00093929A1093939A0E94B9
:10503000CE1108950091949A1091959A012B31F414
:1050400027E132E100EC0E94D41114C00091949A3F
:105050001091959A013020E0120731F428E232E1F4
:1050600000EC0E94D41106C000E010E00093929A78
:105070001093939A04E00E9495350895003309F047
:105080004BC000919A9A002319F50091929A1091C1
:10509000939A012B31F429E332E100EC0E94D41100
:1050A00014C00091929A1091939A013020E0120757
:1050B00031F42AE432E100EC0E94D41106C000E091
:1050C00010E00093929A1093939A0E94CE11089543
:1050D0000091949A1091959A012B31F429E332E1D1
:1050E00000EC0E94D41114C00091949A1091959AEA
:1050F000013020E0120731F42AE432E100EC0E9492
:10510000D41106C000E010E00093929A1093939A95
:1051100004E00E9495350895013309F083C00091A1
:105120009A9A0023F9F50091929A1091939A012B83
:1051300031F42BE532E100EC0E94D41130C0009133
:10514000929A1091939A013020E0120731F42CE6E4
:1051500032E100EC0E94D41122C00091929A109189
:10516000939A023020E0120731F42DE732E100EC8F
:105170000E94D41114C00091929A1091939A033016
:1051800020E0120731F42EE832E100EC0E94D41145
:1051900006C001E010E00093929A1093939A0E9447
:1051A000CE1108950091949A1091959A012B31F4A3
:1051B0002BE532E100EC0E94D41130C00091949AAA
:1051C0001091959A013020E0120731F42CE632E17B
:1051D00000EC0E94D41122C00091949A1091959AEB
:1051E000023020E0120731F42DE732E100EC0E949A
:1051F000D41114C00091949A1091959A033020E034
:10520000120731F42EE832E100EC0E94D41106C0FE
:1052100001E010E00093929A1093939A04E00E94A8
:1052200095350895023309F04BC000919A9A0023F6
:1052300019F50091929A1091939A012B31F42FE96C
:1052400032E100EC0E94D41114C00091929A1091A6
:10525000939A013020E0120731F420EB32E100ECA8
:105260000E94D41106C000E010E00093929A1093BF
:10527000939A0E94CE1108950091949A1091959A54
:10528000012B31F42FE932E100EC0E94D41114C05B
:105290000091949A1091959A013020E0120731F410
:1052A00020EB32E100EC0E94D41106C000E010E0D7
:1052B0000093949A1093959A04E00E94953508956E
:1052C000033349F500919A9A002391F40091929A40
:1052D0001091939A1A930A9301EC12E10E9400A68E
:1052E0002296980100EC0E94D4110E94CE110895DC
:1052F0000091949A1091959A1A930A9301EC12E1F5
:105300000E9400A62296980100EC0E94D41101E0B0
:105310000E9495350895043349F500919A9A002327
:1053200091F40091929A1091939A1A930A9302ED34
:1053300012E10E9400A62296980100EC0E94D4116E
:105340000E94CE1108950091949A1091959A1A9303
:105350000A9303EE12E10E9400A62296980100EC47
:105360000E94D41101E00E9495350895053349F556
:1053700000919A9A002391F40091929A1091939A35
:105380001A930A9303EF12E10E9400A62296980155
:1053900000EC0E94D4110E94CE1108950091949ABD
:1053A0001091959A1A930A9303EF12E10E9400A6B6
:1053B0002296980100EC0E94D41101E00E949535DC
:1053C0000895063349F500919A9A002391F40091CB
:1053D000929A1091939A1A930A9304E013E10E940F
:1053E00000A62296980100EC0E94D4110E94CE11D2
:1053F00008950091949A1091959A1A930A9304E053
:1054000013E10E9400A62296980100EC0E94D4119C
:1054100001E00E9495350895073349F500919A9A65
:10542000002391F40091929A1091939A1A930A93FF
:1054300005E113E10E9400A62296980100EC0E946B
:10544000D4110E94CE1108950091949A1091959ACA
:105450001A930A9305E113E10E9400A6229698018F
:1054600000EC0E94D41101E00E94953508950833A4
:1054700009F045C000919A9A002301F54AE050E0F6
:105480000091929A1091939A0E94C6105A934A934F
:105490004AE050E00091929A1091939A0E94DE1097
:1054A0001A930A9306E213E10E9400A6249698013B
:1054B00000EC0E94D4110E94CE1108954AE050E001
:1054C0000091949A1091959A0E94C6105A934A930B
:1054D0004AE050E00091949A1091959A0E94DE1053
:1054E0001A930A9306E213E10E9400A624969801FB
:1054F00000EC0E94D41106E00E949535089509330E
:1055000049F500919A9A002391F40091929A109192
:10551000939A1A930A930CE313E10E9400A6229631
:10552000980100EC0E94D4110E94CE1108950091C0
:10553000949A1091959A1A930A930CE313E10E949E
:1055400000A62296980100EC0E94D41101E00E946E
:10555000953508950A3349F500919A9A002391F4FC
:105560000091929A1091939A1A930A930DE413E181
:105570000E9400A62296980100EC0E94D4110E947D
:10558000CE1108950091949A1091959A1A930A93C6
:105590000DE413E10E9400A62296980100EC0E94FF
:1055A000D41101E00E94953508950B3349F500911F
:1055B0009A9A002391F40091929A1091939A1A93D7
:1055C0000A930EE513E10E9400A62296980100ECD2
:1055D0000E94D4110E94CE1108950091949A1091C6
:1055E000959A1A930A930EE513E10E9400A622965B
:1055F000980100EC0E94D41101E00E9495350895B5
:105600000C3349F500919A9A002391F40091929AF3
:105610001091939A1A930A930FE613E10E9400A641
:105620002296980100EC0E94D4110E94CE11089598
:105630000091949A1091959A1A930A930FE613E1A8
:105640000E9400A62296980100EC0E94D41101E06D
:105650000E94953508950D3349F500919A9A0023DB
:1056600091F40091929A1091939A1A930A9300E8F8
:1056700013E10E9400A62296980100EC0E94D4112A
:105680000E94CE1108950091949A1091959A1A93C0
:105690000A9300E813E10E9400A62296980100EC0C
:1056A0000E94D41101E00E94953508950E3309F04F
:1056B00045C000919A9A002301F54AE050E000911C
:1056C000929A1091939A0E94C6105A934A934AE074
:1056D00050E00091929A1091939A0E94DE101A93D2
:1056E0000A9301E913E10E9400A62496980100ECB8
:1056F0000E94D4110E94CE1108954AE050E000911A
:10570000949A1091959A0E94C6105A934A934AE02F
:1057100050E00091949A1091959A0E94DE101A938D
:105720000A9301E913E10E9400A62496980100EC77
:105730000E94D41106E00E94953508950F3309F0B8
:1057400045C000919A9A002301F54AE050E000918B
:10575000929A1091939A0E94C6105A934A934AE0E3
:1057600050E00091929A1091939A0E94DE101A9341
:105770000A9307EA13E10E9400A62496980100EC20
:105780000E94D4110E94CE1108954AE050E0009189
:10579000949A1091959A0E94C6105A934A934AE09F
:1057A00050E00091949A1091959A0E94DE101A93FD
:1057B0000A9307EA13E10E9400A62496980100ECE0
:1057C0000E94D41106E00E9495350895053409F031
:1057D00045C000919A9A002301F54AE050E00091FB
:1057E000929A1091939A0E94C6105A934A934AE053
:1057F00050E00091929A1091939A0E94DE101A93B1
:105800000A930CEB13E10E9400A62496980100EC89
:105810000E94D4110E94CE1108954AE050E00091F8
:10582000949A1091959A0E94C6105A934A934AE00E
:1058300050E00091949A1091959A0E94DE101A936C
:105840000A930CEB13E10E9400A62496980100EC49
:105850000E94D41106E00E9495350895063409F09F
:1058600045C000919A9A002301F54AE050E000916A
:10587000929A1091939A0E94C6105A934A934AE0C2
:1058800050E00091929A1091939A0E94DE101A9320
:105890000A9301ED13E10E9400A62496980100EC02
:1058A0000E94D4110E94CE1108954AE050E0009168
:1058B000949A1091959A0E94C6105A934A934AE07E
:1058C00050E00091949A1091959A0E94DE101A93DC
:1058D0000A9301ED13E10E9400A62496980100ECC2
:1058E0000E94D41106E00E9495350895073409F00E
:1058F00045C000919A9A002301F54AE050E00091DA
:10590000929A1091939A0E94C6105A934A934AE031
:1059100050E00091929A1091939A0E94DE101A938F
:105920000A9306EE13E10E9400A62496980100EC6B
:105930000E94D4110E94CE1108954AE050E00091D7
:10594000949A1091959A0E94C6105A934A934AE0ED
:1059500050E00091949A1091959A0E94DE101A934B
:105960000A9306EE13E10E9400A62496980100EC2B
:105970000E94D41106E00E9495350895003409F084
:1059800045C000919A9A002301F548EE53E000913A
:10599000929A1091939A0E94DE105A934A9348EE7D
:1059A00053E00091929A1091939A0E94DE101A93FC
:1059B0000A930BEF13E10E9400A62496980100ECD5
:1059C0000E94D4110E94CE11089548EE53E0009138
:1059D000949A1091959A0E94DE105A934A9348EE39
:1059E00053E00091949A1091959A0E94DE101A93B8
:1059F0000A930BEF13E10E9400A62496980100EC95
:105A00000E94D41107E00E9495350895043409F0EE
:105A100045C000919A9A002301F548EE53E00091A9
:105A2000929A1091939A0E94DE105A934A9348EEEC
:105A300053E00091929A1091939A0E94DE101A936B
:105A40000A9300E114E10E9400A62496980100EC5C
:105A50000E94D4110E94CE11089548EE53E00091A7
:105A6000949A1091959A0E94DE105A934A9348EEA8
:105A700053E00091949A1091959A0E94DE101A9327
:105A80000A9300E114E10E9400A62496980100EC1C
:105A90000E94D41107E00E9495350895013449F51C
:105AA00000919A9A002391F40091929A1091939AFE
:105AB0001A930A9305E214E10E9400A62296980127
:105AC00000EC0E94D4110E94CE1108950091949A86
:105AD0001091959A1A930A9305E214E10E9400A688
